:020000040800F2
:10000000005000205D120008D9110008DF1100081F
:10001000E5110008EB110008F111000800000000D4
:10002000000000000000000000000000F7110008C0
:1000300003120008000000000F1200081B12000845
:10004000A5120008A5120008A5120008A5120008B4
:10005000A5120008A5120008A5120008A5120008A4
:10006000A5120008A5120008A51200082912000810
:10007000A5120008A5120008A5120008A512000884
:10008000A5120008A5120008A5120008A512000874
:10009000A5120008A5120008A5120008A512000864
:1000A000A5120008A5120008A5120008A512000854
:1000B0003D120008A5120008A5120008A5120008AC
:1000C000A5120008A5120008A5120008A512000834
:1000D000A5120008A5120008A5120008A512000824
:1000E000A5120008A5120008A512000800000000D3
:1000F0000000000000000000000000000000000000
:0C01000000000000000000005FF808F1A3
:10010C0010B5054C237833B9044B13B10448AFF345
:10011C0000800123237010BDE807002000000000C0
:10012C006435000808B5034B1BB103490348AFF312
:10013C00008008BD00000000EC07002064350008BA
:10014C0081F0004102E000BF83F0004330B54FEA7C
:10015C0041044FEA430594EA050F08BF90EA020FE9
:10016C001FBF54EA000C55EA020C7FEA645C7FEA7C
:10017C00655C00F0E2804FEA5454D4EB5555B8BF9F
:10018C006D420CDD2C4480EA020281EA030382EA10
:10019C00000083EA010180EA020281EA0303362DA2
:1001AC0088BF30BD11F0004F4FEA01314FF4801C75
:1001BC004CEA113102D0404261EB410113F0004F87
:1001CC004FEA03334CEA133302D0524263EB43033E
:1001DC0094EA050F00F0A780A4F10104D5F1200EDC
:1001EC000DDB02FA0EFC22FA05F2801841F1000137
:1001FC0003FA0EF2801843FA05F359410EE0A5F10B
:10020C0020050EF1200E012A03FA0EFC28BF4CF03B
:10021C00020C43FA05F3C01851EBE37101F00045F1
:10022C0007D54FF0000EDCF1000C7EEB00006EEBFE
:10023C000101B1F5801F1BD3B1F5001F0CD3490888
:10024C005FEA30004FEA3C0C04F101044FEA4452DF
:10025C0012F5800F80F09A80BCF1004F08BF5FEA66
:10026C00500C50F1000041EB045141EA050130BD46
:10027C005FEA4C0C404141EB0101013C28BFB1F558
:10028C00801FE9D291F0000F04BF01460020B1FAA3
:10029C0081F308BF2033A3F10B03B3F120020CDA76
:1002AC000C3208DD02F1140CC2F10C0201FA0CF054
:1002BC0021FA02F10CE002F11402D8BFC2F1200CB9
:1002CC0001FA02F120FA0CFCDCBF41EA0C0190406F
:1002DC00E41AA2BF01EB0451294330BD6FEA0404B8
:1002EC001F3C1CDA0C340EDC04F11404C4F12002A3
:1002FC0020FA04F001FA02F340EA030021FA04F3B5
:10030C0045EA030130BDC4F10C04C4F1200220FA0B
:10031C0002F001FA04F340EA0300294630BD21FA49
:10032C0004F0294630BD94F0000F83F4801306BF0F
:10033C0081F480110134013D4EE77FEA645C18BF03
:10034C007FEA655C29D094EA050F08BF90EA020F9A
:10035C0005D054EA000C04BF1946104630BD91EA92
:10036C00030F1EBF0021002030BD5FEA545C05D195
:10037C004000494128BF41F0004130BD14F58004D4
:10038C003CBF01F5801130BD01F0004545F0FE4148
:10039C0041F470014FF0000030BD7FEA645C1ABF7D
:1003AC00194610467FEA655C1CBF0B46024650EAB4
:1003BC00013406BF52EA033591EA030F41F40021E0
:1003CC0030BD00BF90F0000F04BF0021704730B566
:1003DC004FF4806404F132044FF000054FF000013B
:1003EC0050E700BF90F0000F04BF0021704730B5FC
:1003FC004FF4806404F1320410F0004548BF4042D1
:10040C004FF000013EE700BF42004FEAE2014FEA25
:10041C0031014FEA02701FBF12F07F4393F07F4F00
:10042C0081F06051704732F07F4208BF704793F003
:10043C007F4F04BF41F40021704730B54FF4607416
:10044C0001F0004521F000411CE700BF50EA010219
:10045C0008BF704730B54FF000050AE050EA0102C2
:10046C0008BF704730B511F0004502D5404261EB32
:10047C0041014FF4806404F132045FEA915C3FF473
:10048C00D8AE4FF003025FEADC0C18BF03325FEA10
:10049C00DC0C18BF033202EBDC02C2F1200300FAC1
:1004AC0003FC20FA02F001FA03FE40EA0E0021FAE6
:1004BC0002F11444BDE600BF4FF0FF3C06E000BF64
:1004CC004FF0010C02E000BF4FF0010C4DF804CDD1
:1004DC004FEA410C7FEA6C5C4FEA430C18BF7FEA91
:1004EC006C5C1BD001B050EA410C0CBF52EA430CBF
:1004FC0091EA030F02BF90EA020F0020704710F13F
:10050C00000F91EA030F58BF994208BF90422CBFCD
:10051C00D8176FEAE37040F0010070474FEA410CC6
:10052C007FEA6C5C02D150EA013C07D14FEA430CE4
:10053C007FEA6C5CD6D152EA033CD3D05DF8040B55
:10054C00704700BF8446104662468C461946634687
:10055C0000E000BF01B5FFF7B7FF002848BF10F15E
:10056C00000F01BD4DF808EDFFF7F4FF0CBF0120A3
:10057C0000205DF808FB00BF4DF808EDFFF7EAFF1F
:10058C0034BF012000205DF808FB00BF4DF808EDDA
:10059C00FFF7E0FF94BF012000205DF808FB00BFCF
:1005AC004DF808EDFFF7CEFF94BF012000205DF859
:1005BC0008FB00BF4DF808EDFFF7C4FF34BF012066
:1005CC0000205DF808FB00BFB0B500AF00F066FE80
:1005DC0000F050F800F062F900F042F900F0A6F8D3
:1005EC0000F0F2F802221E491E4800F0B5FF00F0A0
:1005FC0021FC00F0ABFE03461846FFF7E3FE1A4B56
:10060C00D3E90023FFF7A0FD02460B4614461D4616
:10061C00164B1B681846FFF7E5FE02460B462046B4
:10062C002946FFF7C7FF0346002B12D000F08EFEC1
:10063C0003461846FFF7C6FE02460B460A49C1E9B7
:10064C00002300F09DFB00F079FA00F073FC00F041
:10065C005BFB074800F084F900F006FAC9E700BF1D
:10066C00C80B00200C080020D00B0020D407002061
:10067C00C808002080B594B000AF07F128032822E9
:10068C000021184602F03CFF07F1140300221A6007
:10069C005A609A60DA601A613B1D00221A605A6037
:1006AC009A60DA600123BB624FF48033FB62002353
:1006BC003B630123BB6302237B644FF48033BB6435
:1006CC004FF4E013FB6407F12803184601F0D0FE49
:1006DC000346002B01D000F0B5FC0F237B610223F5
:1006EC00BB610023FB614FF480633B6200237B62A0
:1006FC0007F114030221184602F03CF90346002BC3
:10070C0001D000F09FFC02237B604FF40043FB60A0
:10071C003B1D184602F08AFA0346002B01D000F06C
:10072C0091FC00BF5037BD4680BD000080B584B041
:10073C0000AF3B1D00221A605A609A60204B214A80
:10074C001A601F4B4FF480729A601D4B01221A7372
:10075C001B4B00221A751A4B4FF46022DA61184BAE
:10076C0000225A60164B02221A61154800F01CFE3A
:10077C000346002B01D000F065FC00237B600123B5
:10078C00BB600723FB603B1D19460D4800F0DEFFE4
:10079C000346002B01D000F055FC01237B600223A3
:1007AC00BB603B1D1946064800F0D0FF0346002BEA
:1007BC0001D000F047FC00BF1037BD4680BD00BF24
:1007CC000C0800200024014080B586B000AF07F172
:1007DC00080300221A605A609A60DA603B460022D5
:1007EC001A605A601D4B4FF080421A601B4B6322FB
:1007FC005A601A4B00229A60184B40F2CF22DA60F2
:10080C00164B00221A61154B00229A61134802F014
:10081C00C3FA0346002B01D000F014FC4FF48053B4
:10082C00BB6007F1080319460C4802F00CFC0346A8
:10083C00002B01D000F006FC00233B6000237B6002
:10084C003B461946054802F0EBFD0346002B01D050
:10085C0000F0F8FB00BF1837BD4680BD80080020B3
:10086C0080B582B000AF0C4B5B690B4A43F00103BF
:10087C005361094B5B6903F001037B607B680022C9
:10088C0000210B2001F033FA0B2001F04CFA00BFD1
:10089C000837BD4680BD00BF0010024080B588B04F
:1008AC0000AF07F1100300221A605A609A60DA60F8
:1008BC00284B9B69274A43F020039361254B9B6986
:1008CC0003F02003FB60FB68224B9B69214A43F039
:1008DC00040393611F4B9B6903F00403BB60BB686B
:1008EC001C4B9B691B4A43F008039361194B9B6992
:1008FC0003F008037B607B6800224FF2E00116488E
:10090C0001F09EFD00224FF4F851144801F098FDBF
:10091C004FF2E0033B6101237B610023BB610223A7
:10092C00FB6107F1100319460B4801F005FC4FF46D
:10093C00F8533B6101237B610023BB610223FB6104
:10094C0007F110031946054801F0F6FB00BF2037EC
:10095C00BD4680BD00100240000C01400008014063
:10096C0080B586B000AF786000237B6172E0002315
:10097C003B6137E03A697B699A4206D101224FF418
:10098C008051384801F05CFD05E000224FF48051A5
:10099C00344801F055FD01224FF48041314801F0FB
:1009AC004FFD00224FF480412E4801F049FD0122F9
:1009BC004FF400412B4801F043FD00224FF400415D
:1009CC00284801F03DFD01224FF40051254801F06B
:1009DC0037FD00224FF40051224801F031FD3B69F4
:1009EC0001333B613B69172BC4DD0023FB6021E025
:1009FC00FA6813465B0013445B011A467B68134488
:100A0C007A6953F82230002B0CBF01230023DBB290
:100A1C001A462021134801F013FD012240211148F0
:100A2C0001F00EFD002240210E4801F009FDFB688B
:100A3C000133FB60FB68072BDADD012280210948BA
:100A4C0001F0FEFC00228021064801F0F9FC7B69D4
:100A5C0001337B617B69172B89DD00BF00BF183721
:100A6C00BD4680BD000C014080B584B000AF0023B2
:100A7C00FB6057E00023BB601CE02E49FB68DA00EA
:100A8C00BB68134451F82330DBB21A464FF4807123
:100A9C00294801F0D5FC01224FF40071264801F0E1
:100AAC00CFFC00224FF40071234801F0C9FCBB6855
:100ABC000133BB60BB68072BDFDD00237B601FE0CD
:100ACC007A68FB689A4206D100224FF480611A487A
:100ADC0001F0B6FC05E001224FF48061164801F0EC
:100AEC00AFFC01224FF40061134801F0A9FC002275
:100AFC004FF40061104801F0A3FC7B6801337B606C
:100B0C007B68072BDCDD01224FF480510A4801F091
:100B1C0097FC00224FF48051074801F091FCFB68D0
:100B2C000133FB60FB68032BA4DD00BF00BF103753
:100B3C00BD4680BD540700200008014080B584B03C
:100B4C0000AF6E4B1A686D4BD3F80C3613443B60F8
:100B5C006A4B5A68694BD3F8103613447B603B6878
:100B6C00082B01D100233B603B68B3F1FF3F01D15F
:100B7C0007233B607B68182B01D100237B607B68CB
:100B8C00B3F1FF3F01D117237B600023FB6053E0DF
:100B9C005A4AFB68013352F833203B689A4248D1D9
:100BAC00564AFB68DB001344DA687B689A4240D1F2
:100BBC0000F098F94FF47A7000F0D2FB4F4B0322FF
:100BCC001A604E4B0A225A604C4B03229A604B4BD4
:100BDC000522DA60494B03221A61484B06225A61FE
:100BEC00464B03229A61454B0722DA61434B0322A1
:100BFC001A62424B08225A62404B03229A623F4BC4
:100C0C000922DA623D4B03221A633C4B0A225A63D7
:100C1C003A4B0622C3F80826384B0022C3F80C26A0
:100C2C00364B0122C3F81026354B4FF496721A60DE
:100C3C0061E0FB680133FB60304BD3F80836FA688F
:100C4C009A42A5DB3A682F4B1B689A4219D17A68F5
:100C5C002C4B5B689A4214D1284BD3F808360133DD
:100C6C00264AC2F80836254BD3F808366FF0130223
:100C7C0002FB03F303F5D273214A136000F0DAF898
:100C8C0021E00123BB6018E0BB68013B1B49BA683B
:100C9C00013251F832201949013341F83320BB6835
:100CAC00591E164ABB68DB001344DA681348CB00A4
:100CBC000344DA60BB680133BB60104BD3F80836D1
:100CCC00BA689A42E0DB0D4BD3F80836013B3A6820
:100CDC000A49013341F83320084BD3F80836013B5D
:100CEC007A680649DB000B44DA603B68034A136000
:100CFC007B68024A53601037BD4680BD000000205F
:100D0C00D40700200408002080B582B000AF00F0AA
:100D1C00E9F800237B6015E0164A7B68013352F832
:100D2C00332014497B68DB000B44D9681248134606
:100D3C005B001344DB000B44012240F823207B684A
:100D4C0001337B600B4BD3F808367A689A42E3DBAD
:100D5C000A4B1A68094B5968074813465B00134441
:100D6C00DB000B44012240F8232000BF0837BD46AE
:100D7C0080BD00BF00000020C8080020040800202F
:100D8C0080B400AF294B1B88B3F5486F0ED9284BA4
:100D9C00D3F81036B3F1FF3F08D0254B0022C3F82F
:100DAC000C26234B0122C3F810263BE01F4B1B885B
:100DBC00B3F5487F0ED21E4BD3F81036012B09D059
:100DCC001B4B0022C3F80C26194B4FF0FF32C3F813
:100DDC00102627E0154B5B88B3F5487F0ED2144BD9
:100DEC00D3F80C36012B09D0114B4FF0FF32C3F85E
:100DFC000C260F4B0022C3F8102613E00B4B5B881C
:100E0C00B3F5486F0ED90A4BD3F80C36B3F1FF3F4C
:100E1C0008D0074B0122C3F80C26054B0022C3F85F
:100E2C001026FFE700BFBD4680BC7047C80B0020F2
:100E3C000000002080B500AF274B1A68264B59687C
:100E4C00264813465B001344DB000B44002240F899
:100E5C00232000F07BFA03461A461F4B5A601E4BA8
:100E6C0059681F4B83FB01239A10CB17D21A1346D8
:100E7C005B001344DB00CA1A174B5A6000F066FA89
:100E8C0003461A46144B1A60134B5B685A4203F024
:100E9C00070302F0070258BF53420F4A13600E4B70
:100EAC001A680D4B59680D4813465B001344DB0060
:100EBC000B4450F82330012BCBD0074B1A68064B50
:100ECC005968064813465B001344DB000B440122AF
:100EDC0040F8232000BF80BD04080020C808002073
:100EEC00ABAAAA2A80B483B000AF00237B6016E0C3
:100EFC0000233B600DE00E497A6813465B001344F7
:100F0C00DB003A681344002241F823203B6801338C
:100F1C003B603B68172BEEDD7B6801337B607B68A5
:100F2C00072BE5DD00BF00BF0C37BD4680BC70470A
:100F3C00C808002080B487B000AF3C4BD3F808162B
:100F4C003B4B83FB01239A10CB17D21A13469B0001
:100F5C0013445B00CA1A3A60344BD3F80836344A4F
:100F6C0082FB03129210DB17D11A314B83FB012346
:100F7C009A10CB17D21A13469B0013445B00CA1A63
:100F8C007A602A4BD3F808362A4A82FB0312521194
:100F9C00DB17D11A264B83FB01239A10CB17D21ADD
:100FAC0013469B0013445B00CA1ABA601F4BD3F85C
:100FBC000836214A82FB03129211DB17D11A1C4B03
:100FCC0083FB01239A10CB17D21A13469B001344B0
:100FDC005B00CA1AFA6000237B611EE000233B61B0
:100FEC0015E07B699B0018333B4453F8183C1349BC
:100FFC00DA003B69134451F8232011487B69D9006E
:10100C003B690B4440F823203B6901333B613B694E
:10101C00072BE6DD7B6901337B617B69032BDDDD0F
:10102C0000BF00BF1C37BD4680BC704700000020CD
:10103C00676666661F85EB51D34D6210140600205F
:10104C005407002080B400AF72B600BFFEE700006A
:10105C0080B485B000AF154B9B69144A43F0010373
:10106C009361124B9B6903F00103BB60BB680F4B90
:10107C00DB690E4A43F08053D3610C4BDB6903F000
:10108C0080537B607B680A4B5B68FB60FB6823F0DA
:10109C00E063FB60FB6843F00073FB60044AFB6891
:1010AC00536000BF1437BD4680BC7047001002402F
:1010BC000000014080B588B000AF786007F11003E4
:1010CC0000221A605A609A60DA607B681B68284AB2
:1010DC00934249D1274B9B69264A43F40073936191
:1010EC00244B9B6903F40073FB60FB68214B9B69E9
:1010FC00204A43F0040393611E4B9B6903F00403E5
:10110C00BB60BB6803233B6103237B6107F11003C6
:10111C001946194801F010F8184B194A1A60174B68
:10112C0000225A60154B00229A60144B8022DA6020
:10113C00124B4FF480721A61104B4FF480625A615B
:10114C000E4B20229A610D4B0022DA610B4800F005
:10115C0005FE0346002B01D0FFF774FF7B68074A9E
:10116C001A62064A7B68536200BF2037BD4680BDB9
:10117C000024014000100240000801403C080020FF
:10118C000800024080B584B000AF78607B681B68B3
:10119C00B3F1804F13D10C4BDB690B4A43F00103C5
:1011AC00D361094BDB6903F00103FB60FB68002290
:1011BC0001211C2000F09BFD1C2000F0B4FD00BFA1
:1011CC001037BD4680BD00BF0010024080B400AF98
:1011DC00FEE780B400AFFEE780B400AFFEE780B45A
:1011EC0000AFFEE780B400AFFEE780B400AF00BFF5
:1011FC00BD4680BC704780B400AF00BFBD4680BC0C
:10120C00704780B400AF00BFBD4680BC704780B54E
:10121C0000AF00F089F800BF80BD000080B500AFC2
:10122C00024800F055FE00BF80BD00BF3C08002006
:10123C0080B500AF024801F0FEFD00BF80BD00BFCD
:10124C008008002080B400AF00BFBD4680BC704752
:10125C00FFF7F8FF0B480C490C4A002302E0D45866
:10126C00C4500433C4188C42F9D3094A094C0023E6
:10127C0001E013600432A242FBD302F049F9FFF7FC
:10128C00A3F9704700000020E4070020A8350008EF
:10129C00E8070020DC0B0020FEE7000080B500AF63
:1012AC00084B1B68074A43F010031360032000F03F
:1012BC0013FD0F2000F008F8FFF7CAFE00231846B4
:1012CC0080BD00BF0020024080B582B000AF7860C6
:1012DC00124B1A68124B1B7819464FF47A73B3FBF6
:1012EC00F1F3B2FBF3F3184600F02BFD0346002B91
:1012FC0001D001230EE07B680F2B0AD800227968FD
:10130C004FF0FF3000F0F3FC064A7B6813600023BB
:10131C0000E0012318460837BD4680BDD8070020E1
:10132C00E0070020DC07002080B400AF054B1B78E1
:10133C001A46054B1B681344034A136000BFBD4695
:10134C0080BC7047E0070020D80B002080B400AFB1
:10135C00024B1B681846BD4680BC7047D80B00205A
:10136C0080B584B000AF7860FFF7F0FFB8607B68A1
:10137C00FB60FB68B3F1FF3F05D00A4B1B781A46A4
:10138C00FB681344FB6000BFFFF7E0FF0246BB683D
:10139C00D31AFA689A42F7D800BF00BF1037BD467F
:1013AC0080BD00BFE007002080B586B000AF78603C
:1013BC000023FB7500233B610023BB600023FB6013
:1013CC007B68002B01D10123BEE07B689B68002B5E
:1013DC007B689B6A002B09D17B680022DA627B68F0
:1013EC00002283F824207868FFF764FE786800F008
:1013FC00FFFA0346FB757B689B6A03F01003002B16
:10140C0040F09980FB7D002B40F095807B689B6AB7
:10141C0023F4885323F0020343F002027B689A62A0
:10142C007B685A687B68DB691A437B681B7B5B00B3
:10143C001343BA681343BB607B689B68B3F5807F2A
:10144C0003D07B689B68012B02D14FF4807300E0C2
:10145C0000233A6913433B617B681B7D012B19D137
:10146C007B681B7B002B09D17B689B69013B5A0372
:10147C003B69134343F400633B610BE07B689B6A5D
:10148C0043F020027B689A627B68DB6A43F00102BE
:10149C007B68DA627B681B685B6823F469417B6854
:1014AC001B683A690A435A607B681B689A68284B28
:1014BC0013407A681268B9680B4393607B689B6829
:1014CC00B3F5807F03D07B689B68012B04D17B68CC
:1014DC001B69013B1B05FB607B681B68DB6A23F403
:1014EC0070017B681B68FA680A43DA627B681B68C8
:1014FC009A68184B1340BA689A420BD17B68002249
:10150C00DA627B689B6A23F0030343F001027B6879
:10151C009A6218E07B689B6A23F0120343F0100276
:10152C007B689A627B68DB6A43F001027B68DA6253
:10153C000123FB7507E07B689B6A43F010027B6814
:10154C009A620123FB75FB7D18461837BD4680BD9A
:10155C00FDF7E1FFFE0E1FFF80B586B000AFF8600F
:10156C00B9607A600023FB75FB681B68644A934280
:10157C0004D0FB681B68634A934206D1604B5B68DE
:10158C0003F47023002B40F0B380FB6893F82430F5
:10159C00012B01D10223AEE0FB68012283F8242049
:1015AC00F86800F0CBF90346FB75FB7D002B40F08F
:1015BC009A80FB689B6A23F4706323F0010343F465
:1015CC008072FB689A62FB681B684E4A934205D195
:1015DC004B4B5B6803F47023002B15D1FB689B6AA3
:1015EC0023F48012FB689A62FB681B685B6803F447
:1015FC008063002B26D0FB689B6A23F4405343F492
:10160C008052FB689A621DE0FB689B6A43F480126F
:10161C00FB689A62FB681B68394A934204D0FB68EA
:10162C001B68384A93420DD1354B5B6803F48063D9
:10163C00002B07D0FB689B6A23F4405343F4805281
:10164C00FB689A62FB689B6A03F48053002B06D0FC
:10165C00FB68DB6A23F00602FB68DA6202E0FB68D7
:10166C000022DA62FB68002283F82420FB681B6AE4
:10167C00254A9A62FB681B6A244ADA62FB681B6A79
:10168C00234A1A63FB681B686FF002021A60FB683E
:10169C001B689A68FB681B6842F480729A60FB684E
:1016AC00186AFB681B684C331946BA687B6800F0F3
:1016BC00AFFBFB681B689B6803F46023B3F5602FDA
:1016CC0008D1FB681B689A68FB681B6842F4A0028F
:1016DC009A600FE0FB681B689A68FB681B6842F411
:1016EC0080129A6006E0FB68002283F8242001E057
:1016FC000123FB75FB7D18461837BD4680BD00BF26
:10170C0000240140002801407F1A0008FB1A000841
:10171C00171B000880B483B000AF786000BF0C3793
:10172C00BD4680BC704780B483B000AF786000BF0A
:10173C000C37BD4680BC704780B483B000AF786076
:10174C0000BF0C37BD4680BC7047000080B485B02C
:10175C0000AF786039600023FB730023BB607B68AB
:10176C0093F82430012B01D10223DCE07B680122A9
:10177C0083F824203B685B68062B1CD87B681B68AD
:10178C00596B3B685A6813469B001344053B1F2258
:10179C0002FA03F3DB4319403B6818683B685A684C
:1017AC0013469B001344053B00FA03F27B681B684D
:1017BC000A435A633CE03B685B680C2B1CD87B6883
:1017CC001B68196B3B685A6813469B001344233BF8
:1017DC001F2202FA03F3DB4319403B6818683B688D
:1017EC005A6813469B001344233B00FA03F27B68B0
:1017FC001B680A431A631BE07B681B68D96A3B6849
:10180C005A6813469B001344413B1F2202FA03F310
:10181C00DB4319403B6818683B685A6813469B00C9
:10182C001344413B00FA03F27B681B680A43DA62FB
:10183C003B681B68092B1CD97B681B68D9683B6803
:10184C001A6813465B0013441E3B072202FA03F38B
:10185C00DB4319403B6898683B681A6813465B0089
:10186C0013441E3B00FA03F27B681B680A43DA60E0
:10187C0019E07B681B6819693B681A6813465B00A2
:10188C001344072202FA03F3DB4319403B689868C0
:10189C003B681A6813465B00134400FA03F27B683A
:1018AC001B680A431A613B681B68102B03D03B680A
:1018BC001B68112B32D17B681B681D4A934225D1C2
:1018CC007B681B689B6803F40003002B26D17B68A4
:1018DC001B689A687B681B6842F400029A603B683C
:1018EC001B68102B1AD1134B1B68134AA2FB032342
:1018FC009A0C13469B0013445B00BB6002E0BB6870
:10190C00013BBB60BB68002BF9D107E07B689B6A8D
:10191C0043F020027B689A620123FB737B680022F0
:10192C0083F82420FB7B18461437BD4680BC7047D7
:10193C0000240140D807002083DE1B4380B584B00F
:10194C0000AF78600023FB600023BB607B681B68E2
:10195C009B6803F00103012B40D07B681B689A68DD
:10196C007B681B6842F001029A601F4B1B681F4A80
:10197C00A2FB03239B0CBB6002E0BB68013BBB607A
:10198C00BB68002BF9D1FFF7E1FCF8601FE0FFF713
:10199C00DDFC0246FB68D31A022B18D97B681B6846
:1019AC009B6803F00103012B11D07B689B6A43F009
:1019BC0010027B689A627B68DB6A43F001027B68E9
:1019CC00DA627B68002283F82420012307E07B681D
:1019DC001B689B6803F00103012BD8D10023184628
:1019EC001037BD4680BD00BFD807002083DE1B43E7
:1019FC0080B584B000AF78600023FB607B681B6807
:101A0C009B6803F00103012B2ED17B681B689A683D
:101A1C007B681B6822F001029A60FFF797FCF86064
:101A2C001BE0FFF793FC0246FB68D31A022B14D978
:101A3C007B681B689B6803F00103012B0DD17B684D
:101A4C009B6A43F010027B689A627B68DB6A43F006
:101A5C0001027B68DA62012307E07B681B689B68E4
:101A6C0003F00103012BDCD0002318461037BD46D0
:101A7C0080BD80B584B000AF78607B685B6AFB602A
:101A8C00FB689B6A03F05003002B27D1FB689B6A11
:101A9C0043F40072FB689A62FB681B689B6803F452
:101AAC006023B3F5602F15D1FB681B7B002B11D184
:101ABC00FB689B6A23F48072FB689A62FB689B6AE2
:101ACC0003F48053002B05D1FB689B6A43F00102A1
:101ADC00FB689A62F868FFF71DFE04E0FB681B6A5E
:101AEC001B6B7868984700BF1037BD4680BD80B52A
:101AFC0084B000AF78607B685B6AFB60F868FFF7C6
:101B0C0012FE00BF1037BD4680BD80B584B000AF5B
:101B1C0078607B685B6AFB60FB689B6A43F0400201
:101B2C00FB689A62FB68DB6A43F00402FB68DA62CA
:101B3C00F868FFF701FE00BF1037BD4680BD0000FE
:101B4C0080B485B000AF78607B6803F00703FB605E
:101B5C000C4BDB68BB60BA684FF6FF031340BB60ED
:101B6C00FB681A02BB68134343F0BF6343F40033B2
:101B7C00BB60044ABB68D36000BF1437BD4680BC51
:101B8C00704700BF00ED00E080B400AF044BDB6891
:101B9C001B0A03F007031846BD4680BC704700BF04
:101BAC0000ED00E080B483B000AF0346FB7197F901
:101BBC000730002B0BDBFB7903F01F02064997F96A
:101BCC0007305B09012000FA02F241F8232000BF24
:101BDC000C37BD4680BC704700E100E080B483B098
:101BEC0000AF03463960FB7197F90730002B0ADB15
:101BFC003B68DAB20C4997F907301201D2B20B44A8
:101C0C0083F800230AE03B68DAB20849FB7903F059
:101C1C000F03043B1201D2B20B441A7600BF0C37EF
:101C2C00BD4680BC704700BF00E100E000ED00E065
:101C3C0080B489B000AFF860B9607A60FB6803F0DB
:101C4C000703FB61FB69C3F10703042B28BF0423C3
:101C5C00BB61FB690433062B02D9FB69033B00E033
:101C6C0000237B614FF0FF32BB6902FA03F3DA43C6
:101C7C00BB681A407B699A404FF0FF317B6901FACF
:101C8C0003F3D9437B680B40134318462437BD46F6
:101C9C0080BC704780B582B000AF78607B68013B38
:101CAC00B3F1807F01D301230FE00A4A7B68013B2B
:101CBC0053600F214FF0FF30FFF790FF054B0022D0
:101CCC009A60044B07221A60002318460837BD4659
:101CDC0080BD00BF10E000E080B582B000AF78603E
:101CEC007868FFF72DFF00BF0837BD4680BD80B573
:101CFC0086B000AF0346B9607A60FB7300237B614A
:101D0C00FFF742FF78617A68B9687869FFF790FF4E
:101D1C00024697F90F3011461846FFF75FFF00BFD8
:101D2C001837BD4680BD80B582B000AF0346FB714D
:101D3C0097F907301846FFF735FF00BF0837BD4647
:101D4C0080BD80B582B000AF78607868FFF7A2FFE5
:101D5C00034618460837BD4680BD000080B485B0E8
:101D6C0000AF78600023FB607B68002B01D101235E
:101D7C0043E07B681B681A46224B1344224AA2FBA1
:101D8C0003231B099A007B681A647B681F4ADA6379
:101D9C007B68022283F821207B681B681B68FB6030
:101DAC00FB6823F47F5323F03003FB607B685A6895
:101DBC007B689B681A437B68DB681A437B681B69EA
:101DCC001A437B685B691A437B689B691A437B687F
:101DDC00DB691343FA681343FB607B681B68FA6882
:101DEC001A607B6800229A637B68012283F82120A9
:101DFC007B68002283F82020002318461437BD4648
:101E0C0080BC7047F8FFFDBFCDCCCCCC00000240AD
:101E1C0080B586B000AFF860B9607A603B60002393
:101E2C00FB75FB6893F82030012B01D102234BE0AA
:101E3C00FB68012283F82020FB6893F82130DBB289
:101E4C00012B3AD1FB68022283F82120FB68002287
:101E5C009A63FB681B681A68FB681B6822F0010216
:101E6C001A603B687A68B968F86800F037F9FB6863
:101E7C00DB6A002B08D0FB681B681A68FB681B68C0
:101E8C0042F00E021A600FE0FB681B681A68FB68D0
:101E9C001B6822F004021A60FB681B681A68FB6856
:101EAC001B6842F00A021A60FB681B681A68FB6820
:101EBC001B6842F001021A6005E0FB68002283F8FF
:101ECC0020200223FB75FB7D18461837BD4680BDCC
:101EDC0080B584B000AF78607B68DB6B1B68FB60FF
:101EEC007B681B681B68BB607B681B6C04229A4078
:101EFC00FB681340002B4FD0BB6803F00403002B8E
:101F0C004AD07B681B681B6803F02003002B07D1A9
:101F1C007B681B681A687B681B6822F004021A60D5
:101F2C007B681B68664A934229D07B681B68654AAC
:101F3C00934222D07B681B68634A93421AD07B6819
:101F4C001B68624A934212D07B681B68604A9342BA
:101F5C000AD07B681B685F4A934202D14FF480031E
:101F6C000EE04FF080630BE04FF4802308E04FF459
:101F7C00804305E04FF4806302E0402300E004233B
:101F8C00554A53607B68DB6A002B00F094807B68B9
:101F9C00DB6A786898478EE07B681B6C02229A405B
:101FAC00FB681340002B56D0BB6803F00203002BD8
:101FBC0051D07B681B681B6803F02003002B0BD1EE
:101FCC007B681B681A687B681B6822F00A021A601F
:101FDC007B68012283F821207B681B68384A934276
:101FEC0029D07B681B68374A934222D07B681B68D8
:101FFC00354A93421AD07B681B68344A934212D0FC
:10200C007B681B68324A93420AD07B681B68314A52
:10201C00934202D14FF400130EE04FF000730BE02B
:10202C004FF4003308E04FF4005305E04FF4007315
:10203C0002E0202300E00223274A53607B68002241
:10204C0083F820207B689B6A002B34D07B689B6ACA
:10205C00786898472FE07B681B6C08229A40FB68D5
:10206C001340002B28D0BB6803F00803002B23D0AF
:10207C007B681B681A687B681B6822F00E021A606A
:10208C007B681A6C7B68DB6B012101FA02F25A60E7
:10209C007B6801229A637B68012283F821207B688C
:1020AC00002283F820207B681B6B002B04D07B68FC
:1020BC001B6B7868984700BF00BF1037BD4680BDCA
:1020CC00080002401C000240300002404400024064
:1020DC00580002406C0002400000024080B485B001
:1020EC0000AFF860B9607A603B60FB681A6CFB6803
:1020FC00DB6B012101FA02F25A60FB681B683A683B
:10210C005A60FB685B68102B08D1FB681B687A6807
:10211C009A60FB681B68BA68DA6007E0FB681B68AA
:10212C00BA689A60FB681B687A68DA6000BF14377B
:10213C00BD4680BC7047000080B48BB000AF7860A7
:10214C00396000237B6200233B6269E101227B6AD8
:10215C0002FA03F3FB613B681B68FA691340BB612D
:10216C00BA69FB699A4240F058813B685B689A4AAD
:10217C0093425ED0984A934275D8984A934258D06D
:10218C00964A93426FD8964A934252D0944A9342BD
:10219C0069D8944A93424CD0924A934263D8924A5B
:1021AC00934246D0904A93425DD8122B2AD8122BD8
:1021BC0059D801A252F823F03F2200081922000836
:1021CC002B2200086D2200087322000873220008DD
:1021DC00732200087322000873220008732200087F
:1021EC00732200087322000873220008732200086F
:1021FC0073220008732200087322000821220008B1
:10220C0035220008794A934213D02CE03B68DB68F6
:10221C003B6229E03B68DB6804333B6224E03B68AB
:10222C00DB6808333B621FE03B68DB680C333B62C6
:10223C001AE03B689B68002B02D104233B6213E03D
:10224C003B689B68012B05D108233B627B68FA69CC
:10225C001A6109E008233B627B68FA695A6103E062
:10226C0000233B6200E000BFBB69FF2B01D87B68F9
:10227C0001E07B6804337B61BB69FF2B02D87B6A6E
:10228C009B0002E07B6A083B9B003B617B691A6800
:10229C000F213B6901FA03F3DB431A40396A3B69AE
:1022AC0001FA03F31A437B691A603B685B6803F01D
:1022BC008053002B00F0B1804D4B9B694C4A43F08E
:1022CC00010393614A4B9B6903F00103BB60BB683C
:1022DC00484A7B6A9B08023352F82330FB607B6AC6
:1022EC0003F003039B000F2202FA03F3DB43FA68AB
:1022FC001340FB607B68404A934213D07B683F4A93
:10230C0093420DD07B683E4A934207D07B683D4A8E
:10231C00934201D1032306E0042304E0022302E0EC
:10232C00012300E000237A6A02F00302920093403A
:10233C00FA681343FB602F497B6A9B080233FA68E7
:10234C0041F823203B685B6803F48013002B06D014
:10235C002D4B9A682C49BB6913438B6006E02A4BC2
:10236C009A68BB69DB43284913408B603B685B6808
:10237C0003F40013002B06D0234BDA682249BB6907
:10238C001343CB6006E0204BDA68BB69DB431E4984
:10239C001340CB603B685B6803F40033002B06D022
:1023AC00194B5A681849BB6913434B6006E0164B2E
:1023BC005A68BB69DB43144913404B603B685B684C
:1023CC0003F48033002B21D00F4B1A680E49BB69E4
:1023DC0013430B6021E000BF0000321000003110ED
:1023EC00000022100000211000001210000011103B
:1023FC00001002400000014000080140000C0140A8
:10240C000010014000140140000401400B4B1A68FD
:10241C00BB69DB43094913400B607B6A01337B6268
:10242C003B681A687B6A22FA03F3002B7FF48EAEAA
:10243C0000BF00BF2C37BD4680BC70470004014074
:10244C0080B483B000AF78600B467B8013467B7002
:10245C007B78002B03D07A887B681A6103E07B8839
:10246C001A047B681A6100BF0C37BD4680BC7047EC
:10247C0080B586B000AF78607B68002B01D101235A
:10248C0072E27B681B6803F00103002B00F087806D
:10249C00924B5B6803F00C03042B0CD08F4B5B68E6
:1024AC0003F00C03082B12D18C4B5B6803F48033C4
:1024BC00B3F5803F0BD1894B1B6803F40033002B21
:1024CC006CD07B685B68002B68D101234CE27B6885
:1024DC005B68B3F5803F06D1804B1B687F4A43F4A1
:1024EC00803313602EE07B685B68002B0CD17B4B38
:1024FC001B687A4A23F480331360784B1B68774A45
:10250C0023F4802313601DE07B685B68B3F5A02F78
:10251C000CD1724B1B68714A43F4802313606F4BD0
:10252C001B686E4A43F4803313600BE06B4B1B68E3
:10253C006A4A23F480331360684B1B68674A23F4A0
:10254C00802313607B685B68002B13D0FEF7FEFEC4
:10255C00386108E0FEF7FAFE02463B69D31A642B99
:10256C0001D9032300E25D4B1B6803F40033002BFD
:10257C00F0D014E0FEF7EAFE386108E0FEF7E6FE64
:10258C0002463B69D31A642B01D90323ECE1534B6C
:10259C001B6803F40033002BF0D100E000BF7B6814
:1025AC001B6803F00203002B63D04C4B5B6803F0F9
:1025BC000C03002B0BD0494B5B6803F00C03082B6E
:1025CC001CD1464B5B6803F48033002B16D1434B74
:1025DC001B6803F00203002B05D07B681B69012BE1
:1025EC0001D00123C0E13D4B1B6823F0F8027B684E
:1025FC005B69DB00394913430B603AE07B681B696C
:10260C00002B20D0364B01221A60FEF79FFE38615A
:10261C0008E0FEF79BFE02463B69D31A022B01D958
:10262C000323A1E12D4B1B6803F00203002BF0D018
:10263C002A4B1B6823F0F8027B685B69DB00274997
:10264C0013430B6015E0264B00221A60FEF77EFE4A
:10265C00386108E0FEF77AFE02463B69D31A022B7A
:10266C0001D9032380E11D4B1B6803F00203002BEF
:10267C00F0D17B681B6803F00803002B3AD07B6811
:10268C009B69002B19D0174B01221A60FEF75EFED6
:10269C00386108E0FEF75AFE02463B69D31A022B5A
:1026AC0001D9032360E10D4B5B6A03F00203002B9D
:1026BC00F0D0012000F09CFA1CE00A4B00221A60BA
:1026CC00FEF744FE38610FE0FEF740FE02463B6920
:1026DC00D31A022B08D9032346E100BF0010024095
:1026EC000000424280044242924B5B6A03F00203B8
:1026FC00002BE9D17B681B6803F00403002B00F06E
:10270C00A6800023FB758B4BDB6903F08053002BF9
:10271C000DD1884BDB69874A43F08053D361854BDD
:10272C00DB6903F08053BB60BB680123FB75824BF4
:10273C001B6803F48073002B18D17F4B1B687E4AF7
:10274C0043F480731360FEF701FE386108E0FEF776
:10275C00FDFD02463B69D31A642B01D9032303E127
:10276C00754B1B6803F48073002BF0D07B68DB681F
:10277C00012B06D16F4B1B6A6E4A43F001031362A7
:10278C002DE07B68DB68002B0CD16A4B1B6A694A15
:10279C0023F001031362674B1B6A664A23F00403A0
:1027AC0013621CE07B68DB68052B0CD1614B1B6A48
:1027BC00604A43F0040313625E4B1B6A5D4A43F0AC
:1027CC00010313620BE05B4B1B6A5A4A23F00103B3
:1027DC001362584B1B6A574A23F0040313627B683D
:1027EC00DB68002B15D0FEF7B1FD38610AE0FEF76F
:1027FC00ADFD02463B69D31A41F28832934201D9AE
:10280C000323B1E04B4B1B6A03F00203002BEED009
:10281C0014E0FEF79BFD38610AE0FEF797FD0246D7
:10282C003B69D31A41F28832934201D903239BE0CE
:10283C00404B1B6A03F00203002BEED1FB7D012BF6
:10284C0005D13C4BDB693B4A23F08053D3617B6859
:10285C00DB69002B00F08780364B5B6803F00C03C0
:10286C00082B61D07B68DB69022B46D1334B0022ED
:10287C001A60FEF76BFD386108E0FEF767FD024653
:10288C003B69D31A022B01D903236DE0294B1B683A
:10289C0003F00073002BF0D17B681B6AB3F5803F0B
:1028AC0008D1244B5B6823F400327B689B68214978
:1028BC0013434B601F4B5B6823F474127B68196ADB
:1028CC007B685B6A0B431B4913434B601B4B012218
:1028DC001A60FEF73BFD386108E0FEF737FD024653
:1028EC003B69D31A022B01D903233DE0114B1B6822
:1028FC0003F00073002BF0D035E0104B00221A606F
:10290C00FEF724FD386108E0FEF720FD02463B6926
:10291C00D31A022B01D9032326E0064B1B6803F0C4
:10292C000073002BF0D11EE07B68DB69012B07D113
:10293C00012319E000100240007000406000424288
:10294C000B4B5B68FB60FB6803F480327B681B6A93
:10295C009A4206D1FB6803F470127B685B6A9A4258
:10296C0001D0012300E0002318461837BD4680BD76
:10297C000010024080B584B000AF786039607B688D
:10298C00002B01D10123D0E06A4B1B6803F0070335
:10299C003A689A4210D9674B1B6823F007026549C5
:1029AC003B6813430B60634B1B6803F007033A68E7
:1029BC009A4201D00123B8E07B681B6803F0020344
:1029CC00002B20D07B681B6803F00403002B05D080
:1029DC00594B5B68584A43F4E06353607B681B684F
:1029EC0003F00803002B05D0534B5B68524A43F4A9
:1029FC0060535360504B5B6823F0F0027B689B681C
:102A0C004D4913434B607B681B6803F00103002B9B
:102A1C0040D07B685B68012B07D1474B1B6803F4E4
:102A2C000033002B15D101237FE07B685B68022B00
:102A3C0007D1414B1B6803F00073002B09D1012314
:102A4C0073E03D4B1B6803F00203002B01D1012303
:102A5C006BE0394B5B6823F003027B685B6836499B
:102A6C0013434B60FEF772FCF8600AE0FEF76EFC55
:102A7C000246FB68D31A41F28832934201D90323F0
:102A8C0053E02D4B5B6803F00C027B685B689B008A
:102A9C009A42EBD1274B1B6803F007033A689A4222
:102AAC0010D2244B1B6823F0070222493B681343C6
:102ABC000B60204B1B6803F007033A689A4201D065
:102ACC00012332E07B681B6803F00403002B08D061
:102ADC00194B5B6823F4E0627B68DB68164913438F
:102AEC004B607B681B6803F00803002B09D0124B6A
:102AFC005B6823F460527B681B69DB000E4913434F
:102B0C004B6000F021F802460B4B5B681B0903F08D
:102B1C000F030A49CB5C22FA03F3094A1360094BF1
:102B2C001B681846FEF7D0FB002318461037BD462D
:102B3C0080BD00BF00200240001002407C35000820
:102B4C00D8070020DC07002080B487B000AF00233A
:102B5C00FB600023BB6000237B6100237B600023B0
:102B6C003B611E4B5B68FB60FB6803F00C03042BA2
:102B7C0002D0082B03D027E0194B3B6127E0FB6800
:102B8C009B0C03F00F03174AD35C7B60FB6803F4C8
:102B9C008033002B10D0114B5B685B0C03F00103EE
:102BAC00114AD35CBB607B680D4A03FB02F2BB6825
:102BBC00B2FBF3F37B6104E07B680C4A02FB03F38A
:102BCC007B617B693B6102E0054B3B6100BF3B696C
:102BDC0018461C37BD4680BC704700BF0010024031
:102BEC0000127A008C3500089C35000800093D0065
:102BFC0080B485B000AF78600A4B1B680A4AA2FB10
:102C0C0003235B0A7A6802FB03F3FB6000BFFB68DB
:102C1C005A1EFA60002BF9D100BF00BF1437BD4615
:102C2C0080BC7047D8070020D34D621080B586B0A9
:102C3C0000AF786000233B610023FB607B681B685E
:102C4C0003F00103002B7DD00023FB754F4BDB6998
:102C5C0003F08053002B0DD14C4BDB694B4A43F0F6
:102C6C008053D361494BDB6903F08053BB60BB6875
:102C7C000123FB75464B1B6803F48073002B18D1A2
:102C8C00434B1B68424A43F480731360FEF75EFBB0
:102C9C00386108E0FEF75AFB02463B69D31A642BF5
:102CAC0001D903236DE03A4B1B6803F48073002BAE
:102CBC00F0D0364B1B6A03F44073FB60FB68002BAF
:102CCC002ED07B685B6803F44073FA689A4227D075
:102CDC002E4B1B6A23F44073FB602E4B01221A60AF
:102CEC002C4B00221A60294AFB681362FB6803F024
:102CFC000103002B14D0FEF729FB38610AE0FEF724
:102D0C0025FB02463B69D31A41F28832934201D922
:102D1C00032336E01D4B1B6A03F00203002BEED09D
:102D2C001A4B1B6A23F440727B685B681749134388
:102D3C000B62FB7D012B05D1144BDB69134A23F08D
:102D4C008053D3617B681B6803F00203002B08D00F
:102D5C000E4B5B6823F440427B689B680B49134322
:102D6C004B607B681B6803F01003002B08D0074BEB
:102D7C005B6823F480027B68DB68044913434B6077
:102D8C00002318461837BD4680BD00BF0010024016
:102D9C00007000404004424280B582B000AF7860C1
:102DAC007B68002B01D1012341E07B6893F83D3017
:102DBC00DBB2002B06D17B68002283F83C207868BC
:102DCC00FEF7E0F97B68022283F83D207B681A68E5
:102DDC007B6804331946104600F02AFA7B680122FE
:102DEC0083F846207B68012283F83E207B68012211
:102DFC0083F83F207B68012283F840207B68012206
:102E0C0083F841207B68012283F842207B680122F1
:102E1C0083F843207B68012283F844207B680122DD
:102E2C0083F845207B68012283F83D200023184657
:102E3C000837BD4680BD80B582B000AF78607B6836
:102E4C001B681B6903F00203022B22D17B681B68F1
:102E5C00DB6803F00203022B1BD17B681B686FF04D
:102E6C0002021A617B6801221A777B681B689B69D6
:102E7C0003F00303002B03D0786800F0BDF905E0E4
:102E8C00786800F0B0F9786800F0BFF97B68002230
:102E9C001A777B681B681B6903F00403042B22D18F
:102EAC007B681B68DB6803F00403042B1BD17B6875
:102EBC001B686FF004021A617B6802221A777B6828
:102ECC001B689B6903F44073002B03D0786800F0F7
:102EDC0093F905E0786800F086F9786800F095F9C8
:102EEC007B6800221A777B681B681B6903F0080358
:102EFC00082B22D17B681B68DB6803F00803082BC6
:102F0C001BD17B681B686FF008021A617B68042276
:102F1C001A777B681B68DB6903F00303002B03D073
:102F2C00786800F069F905E0786800F05CF9786879
:102F3C0000F06BF97B6800221A777B681B681B69B1
:102F4C0003F01003102B22D17B681B68DB6803F0A5
:102F5C001003102B1BD17B681B686FF010021A61D9
:102F6C007B6808221A777B681B68DB6903F4407363
:102F7C00002B03D0786800F03FF905E0786800F08A
:102F8C0032F9786800F041F97B6800221A777B6887
:102F9C001B681B6903F00103012B0ED17B681B68B6
:102FAC00DB6803F00103012B07D17B681B686FF012
:102FBC0001021A61786800F00DF97B681B681B69C7
:102FCC0003F08003802B0ED17B681B68DB6803F059
:102FDC008003802B07D17B681B686FF080021A611D
:102FEC00786800F084FA7B681B681B6903F0400367
:102FFC00402B0ED17B681B68DB6803F04003402B31
:10300C0007D17B681B686FF040021A61786800F08A
:10301C0005F97B681B681B6903F02003202B0ED17C
:10302C007B681B68DB6803F02003202B07D17B68CF
:10303C001B686FF020021A61786800F04FFA00BF2D
:10304C000837BD4680BD80B584B000AF786039606C
:10305C000023FB737B6893F83C30012B01D10223D6
:10306C00B4E07B68012283F83C207B68022283F861
:10307C003D207B681B689B68BB60BB6823F07703B3
:10308C00BB60BB6823F47F43BB607B681B68BA687A
:10309C009A603B681B68B3F5005F3ED0B3F5005FE8
:1030AC0000F28780B3F5805F00F08680B3F5805F17
:1030BC007FD8702B1AD0702B7BD8602B50D0602B04
:1030CC0077D8502B3CD0502B73D8402B58D0402B5A
:1030DC006FD8302B64D0302B6BD8202B60D0202BAA
:1030EC0067D8002B5CD0102B5AD062E07B68186834
:1030FC003B6899683B685A683B68DB6800F071F97B
:10310C007B681B689B68BB60BB6843F07703BB6044
:10311C007B681B68BA689A604FE07B6818683B68EC
:10312C0099683B685A683B68DB6800F05AF97B6821
:10313C001B689A687B681B6842F480429A603CE08A
:10314C007B6818683B6859683B68DB681A4600F076
:10315C00D1F87B681B685021184600F028F92CE048
:10316C007B6818683B6859683B68DB681A4600F056
:10317C00EFF87B681B686021184600F018F91CE01A
:10318C007B6818683B6859683B68DB681A4600F036
:10319C00B1F87B681B684021184600F008F90CE078
:1031AC007B681A683B681B681946104600F0FFF8EC
:1031BC0003E00123FB7300E000BF7B68012283F86E
:1031CC003D207B68002283F83C20FB7B184610379F
:1031DC00BD4680BD80B483B000AF786000BF0C37B3
:1031EC00BD4680BC704780B483B000AF786000BF30
:1031FC000C37BD4680BC704780B483B000AF78609C
:10320C0000BF0C37BD4680BC704780B483B000AFA4
:10321C00786000BF0C37BD4680BC704780B483B06B
:10322C0000AF786000BF0C37BD4680BC7047000013
:10323C0080B485B000AF786039607B681B68FB6038
:10324C007B68294A93420BD07B68B3F1804F07D03F
:10325C007B68264A934203D07B68254A934208D167
:10326C00FB6823F07003FB603B685B68FA681343F0
:10327C00FB607B681C4A93420BD07B68B3F1804F98
:10328C0007D07B68194A934203D07B68184A934253
:10329C0008D1FB6823F44073FB603B68DB68FA6879
:1032AC001343FB60FB6823F080023B685B691343AC
:1032BC00FB607B68FA681A603B689A687B68DA6224
:1032CC003B681A687B689A627B68074A934203D111
:1032DC003B681A697B681A637B6801225A6100BFDC
:1032EC001437BD4680BC7047002C014000040040E0
:1032FC000008004080B487B000AFF860B9607A6015
:10330C00FB681B6A7B61FB681B6A23F00102FB688C
:10331C001A62FB689B693B613B6923F0F0033B61DC
:10332C007B681B013A6913433B617B6923F00A03F9
:10333C007B617A69BB6813437B61FB683A699A616C
:10334C00FB687A691A6200BF1C37BD4680BC7047A7
:10335C0080B487B000AFF860B9607A60FB681B6A14
:10336C007B61FB681B6A23F01002FB681A62FB6826
:10337C009B693B613B6923F470433B617B681B0396
:10338C003A6913433B617B6923F0A0037B61BB6803
:10339C001B017A6913437B61FB683A699A61FB688C
:1033AC007A691A6200BF1C37BD4680BC704780B476
:1033BC0085B000AF786039607B689B68FB60FB6808
:1033CC0023F07003FB603A68FB68134343F0070378
:1033DC00FB607B68FA689A6000BF1437BD4680BCFE
:1033EC00704780B487B000AFF860B9607A603B601A
:1033FC00FB689B687B617B6923F47F437B613B6843
:10340C001A027B681A43BB6813437A6913437B61C6
:10341C00FB687A699A6000BF1C37BD4680BC704758
:10342C0080B485B000AF786039607B6893F83C302D
:10343C00012B01D1022346E07B68012283F83C205A
:10344C007B68022283F83D207B681B685B68FB600D
:10345C007B681B689B68BB60FB6823F07003FB6098
:10346C003B681B68FA681343FB607B681B68FA684F
:10347C005A607B681B68164A93420ED07B681B68A7
:10348C00B3F1804F09D07B681B68124A934204D079
:10349C007B681B68104A93420CD1BB6823F08003F5
:1034AC00BB603B685B68BA681343BB607B681B6896
:1034BC00BA689A607B68012283F83D207B68002201
:1034CC0083F83C20002318461437BD4680BC704757
:1034DC00002C0140000400400008004080B483B080
:1034EC0000AF786000BF0C37BD4680BC704780B41D
:1034FC0083B000AF786000BF0C37BD4680BC70470E
:10350C0003460244934200D1704703F8011BF9E7CC
:10351C0070B500260C4D0D4C641BA410A64209D1AD
:10352C0000F01AF800260A4D0A4C641BA410A6429F
:10353C0005D170BD55F8043B98470136EEE755F8B8
:10354C00043B98470136F2E7A0350008A035000887
:10355C00A0350008A4350008F8B500BFF8BC08BCBD
:10356C009E467047F8B500BFF8BC08BC9E46704735
:10357C000000000000000000010203040607080917
:10358C0002030405060708090A0B0C0D0E0F101098
:04359C000102000028
:0435A00031010008ED
:0435A4000D0100080D
:1035A800030000000A0000000300000005000000FE
:1035B80003000000060000000300000007000000F0
:1035C80003000000080000000300000009000000DC
:1035D800030000000A0000000000000000000000D6
:1035E80000000000000000000000000000000000D3
:1035F80000000000000000000000000000000000C3
:1036080000000000000000000000000000000000B2
:1036180000000000000000000000000000000000A2
:103BA8000000000000000000060000000000000007
:103BB80001000000000000000000000001000000FB
:103BC80001000000010000000100000001000000E9
:103BD80001000000000000000000000000000000DC
:103BE80000000000000000000100000001000000CB
:103BF80000000000000000000100000000000000BC
:103C080001000000010000000000000001000000A9
:103C1800010000000000000001000000000000009A
:103C28000000000001000000010000000100000089
:103C38000100000000000000010000000100000079
:103C4800000000000000000001000000010000006A
:103C5800000000000000000001000000010000005A
:103C6800000000000100000001000000000000004A
:103C78000100000000000000010000000100000039
:103C88000100000001000000010000000000000029
:103C9800010000000000000000000000000000001B
:103CA800000000000000000001000000010000000A
:103CB80001000000000000000100000001000000F9
:103CC80001000000010000000100000001000000E8
:103CD80001000000000000000100000001000000D9
:103CE80000000000010000000100000001000000C9
:103CF80001000000000000000100000001000000B9
:103D080001000000010000000100000001000000A7
:103D18000100000001000000000000000100000098
:103D28000100000001000000010000000100000087
:103D38000100000001000000010000000000000078
:103D48000100000001000000010000000100000067
:103D58000100000001000000010000000100000057
:103D68000000000001000000010000000100000048
:103D7800010000002C0100000024F40010000000E5
:043D88000100000036
:040000050800125D80
:00000001FF
